:02000002D0002C
:1040000000400D00886E0D00000006000C00050148
:084010000401E80500000000B6
:044018007C690D00B2
:10401C0009480A49884208B505D0094A824202D0AB
:10402C00121A02F033FC0748074A0021121A02F058
:10403C0038FC014808BD00BFA8B40320F46D0D0086
:10404C0014B5032014B50320F0E7032070B501F07C
:10405C007BF9074C074BE41AA40800251E46A54221
:10406C0004D056F8253098470135F8E770BD00BFED
:10407C00E86D0D00A86D0D0000F03CB808B500F01F
:10408C00B9F9BDE8084001F021B900F02DBF00F0EE
:10409C0033BF00F031BF0078B0FA80F040097047B0
:1040AC0001230370704770477047000013B5054B30
:1040BC001B788DF800303C23044601F0B3FA2046FF
:1040CC0002B010BD1CB5032038B5046805467CB1A0
:1040DC006368013B63605BB9236820469B68984723
:1040EC00A368013BA3601BB923682046DB68984793
:1040FC00284638BD07B51821134800F09CFB38B989
:10410C006846124A1249FFF7D1FF01A8FFF7DCFFFE
:10411C0001210D4800F066FB0E4A0D496846FFF779
:10412C00C5FF01A8FFF7D0FF0221062001F0FEFF1A
:10413C000121072001F0FAFF4FF47A7001F078F8B2
:10414C0003B05DF804FB00BFA0D4032090690D0000
:10415C00AB690D00AE690D002DE9F0432DED048B1C
:10416C008A4A8B491068002391B01E4690468342C0
:10417C0004DC51F8232001331644F8E7854F8649B7
:10418C00386800231D46834204DC51F82320013398
:10419C001544F8E7814B8249186800231C4683427A
:1041AC0004DC51F8232001331444F8E732467D49EE
:1041BC00DFF8E89104A800F0A7FE2A46794907A881
:1041CC0000F0A2FE224677490AA800F09DFED8F81E
:1041DC0000207449744800F097FE3A68714973489E
:1041EC0000F092FED9F800206E49714800F08CFE68
:1041FC0007EE906AB8EEE79AD8ED007AF8EEE77A17
:10420C0087EE897A17EE100A02F0DEFA02460B46A8
:10421C006848694900F078FE07EE905AF8EEE78A94
:10422C00D7ED007AF8EEE77A87EEA87A17EE100A47
:10423C0002F0CAFA02460B4660485F4900F064FE81
:10424C0007EE904AB8EEE78AD9ED007AF8EEE77AF5
:10425C0087EE887A17EE100A02F0B6FA02460B4681
:10426C005748554900F050FE98ED007AB8EEC77AE1
:10427C00C7EE097A97ED007AB8EEC77AC7EE286ACE
:10428C0099ED007AB8EEC77A77EEA67AC7EE086A8F
:10429C00B0EE087A77EEA67AC7EE876A16EE900A29
:1042AC0002F092FA02460B460DA8434900F02CFE90
:1042BC00444B45491B788DF8003000223C2302A862
:1042CC0001F0B0F903A8FFF7FFFE374A3F4902A8F7
:1042DC00FFF7ECFE03A8FFF7F7FE344A3C4902A8AF
:1042EC00FFF7E4FE03A8FFF7EFFE4FF47A7000F03F
:1042FC009FFF2F4A374902A8FFF7D8FE03A8FFF704
:10430C00E3FE04AA344902A8FFF7D0FE03A8FFF786
:10431C00DBFE07AA314902A8FFF7C8FE03A8FFF786
:10432C00D3FE4FF47A7000F083FF0AAA2C4902A83E
:10433C00FFF7BCFE03A8FFF7C7FE1E4A294902A8D7
:10434C00FFF7B4FE03A8FFF7BFFE1C4A264902A8DC
:10435C00FFF7ACFE03A8FFF7B7FE4FF47A7000F03E
:10436C0067FF174A214902A8FFF7A0FE03A8FFF731
:10437C00ABFE0DAA1E4902A8FFF798FE03A8FFF793
:10438C00A3FE11B0BDEC048BBDE8F08318D503205F
:10439C003CB503201CD50320DCC4032020D503200E
:1043AC0024D50320CD690D0027B50320E4D40320C8
:1043BC0031B5032094D40320D0690D001DB5032022
:1043CC00CCD403201CB50320D3690D00E4690D0087
:1043DC00EE690D00F8690D00026A0D000C6A0D0003
:1043EC00166A0D00206A0D003B6A0D00576A0D001D
:1043FC00736A0D002DE9F743484C494D26462B783E
:10440C00002B00F08780474F4748DFF84891DFF8D2
:10441C005881394600F020FBD7ED057A43494448D2
:10442C00FDEEE77AB7EE007A17EE902AC4ED007A2B
:10443C00D7ED067AFDEEE77AC9ED007AD7ED077A6B
:10444C0077EEC77AFDEEE77AC8ED007A00F05CFDF6
:10445C00D9F800203549374800F056FDD8F800202F
:10446C003249354800F050FD062001F089FE074620
:10447C0038B90121072001F06AFE2F70FFF76CFE9E
:10448C0003E00021072001F062FE2C4B32681B6810
:10449C009A420CD0264A2A496846FFF707FE01A823
:1044AC00FFF712FE23682749274A002B26E0274BEB
:1044BC00D9F800201B689A420DD01E4A2449684640
:1044CC00FFF7F4FD01A8FFF7FFFD224B22491B6803
:1044DC00224A002B12E0224BD8F800201B689A428B
:1044EC0018D0154A1F496846FFF7E0FD01A8FFF7F1
:1044FC00EBFD1D4B1D491B681D4A002B1068B8BFF6
:10450C005B4241F82030136801331360322000F015
:10451C008FFE74E703B0BDE8F08300BFF0D4032036
:10452C00A8B40320F4D40320A0D40320CD690D003B
:10453C0080D40320C4E403208AD40320D8D40320DD
:10454C00856A0D003CB5032018D50320DCD403206C
:10455C00876A0D007CD40320DCC403201CD5032007
:10456C00E0D40320896A0D0018B5032024D503205C
:10457C0020D5032010B52C21044601F063FE204603
:10458C0010BD000010B5084B084C00221A7000F04A
:10459C008FFA204600F032F82046054A0549BDE85E
:1045AC00104001F041BE00BF1CB50320A0D4032075
:1045BC0014B50320B5400D0000F07ABA38B50C469E
:1045CC00054628220021204602F06BF90B220849EF
:1045DC00204602F0BAF900230122E372E260A969D5
:1045EC006362002321616261A361E361236238BDD0
:1045FC008B6A0D000368C9B29B681847064A0260B3
:10460C004FF0FF3282614277FF21C27780F8202081
:10461C0008228177426270479C6A0D0038B5094DBB
:10462C00296811F001040AD12846FFF734FD30B196
:10463C002146054800F0C4FC2846FFF731FD02482E
:10464C0038BD00BFD0E40320D4E403202DE9F041B1
:10465C0090F92030013305460F4606D1FFF7DEFFF7
:10466C003946BDE8F04100F031BD072600244FF07B
:10467C00010895F92000002180B201F068FD95F940
:10468C001E0008FA06F1394080B201F060FD95F980
:10469C002000012180B201F05AFD95F91F00640041
:1046AC0080B2E4B201F06CFD08B144F0010416F1E3
:1046BC00FF36DED22046BDE8F081000008B5FFF7DA
:1046CC00ADFF012100F097FCFFF7A8FF054901227F
:1046DC0000F0CAFCFFF7A2FF0021BDE8084000F083
:1046EC009BBC00BF20A1070070B590F91D300133B1
:1046FC0004460E46154616D101F070FD217F01F0DF
:10470C002EFB01F06BFD036831469B68984701F066
:10471C0065FD036829469B68984701F05FFDBDE87D
:10472C00704001F027BB90F92030013301D1FFF725
:10473C00C5FF94F91D00002180B201F008FD06F0C0
:10474C007F012046FFF782FF29462046FFF77EFFB8
:10475C0094F91D00012180B2BDE8704001F0F7BC56
:10476C0038B590F91D30013304460D461CD101F0CB
:10477C0035FD94F91C1001F0F6FA01F02FFD0368D9
:10478C0029469B68984701F029FD01F0F3FA01F0E6
:10479C0025FD0122217F01F0DFFA01F01FFD0368E6
:1047AC005B699847C5B21BE090F92030013301D109
:1047BC00FFF784FF94F91D00002180B201F0C7FCC3
:1047CC0045F080012046FFF741FF00212046FFF70E
:1047DC003DFF054694F91D00012180B201F0B7FCA4
:1047EC00284638BD38B50D4623210446FFF7B8FFDF
:1047FC0020F0300040EA0512D2B220462321BDE859
:10480C003840FFF771BF08B52321FFF7A9FFC0F3AC
:10481C00011008BD38B50D4620210446FFF7A0FF56
:10482C0000F00F0040EA0512D2B220462021BDE86C
:10483C003840FFF759BF10B50446017790F91D00B9
:10484C00421C04D101F0CAFC01F052FA22E0012111
:10485C0080B201F07CFC94F91D00012180B201F0C2
:10486C0065FC94F92000431C04D1FFF7D7FE00F03F
:10487C00B1FB0FE0012180B201F058FC94F91E004D
:10488C00012180B201F052FC94F91F00002180B28A
:10489C0001F04CFC0F212046FFF762FF332819D1A1
:1048AC00072220462021FFF71FFF20460721FFF794
:1048BC00B1FF204688222321FFF716FF2046102245
:1048CC002221FFF711FF204680221F21FFF70CFF4A
:1048DC00012010BD002010BD10B590F91D30013322
:1048EC00044642D101F07AFC94F91C1001F03BFA19
:1048FC0001F074FCA821FFF77DFE01F06FFC01F0C4
:10490C0039FA01F06BFC0622217F01F025FA01F047
:10491C0065FC03685B699847E08001F05FFC036805
:10492C005B699847E38843EA0020E08001F056FC7D
:10493C0003685B699847208101F050FC03685B6950
:10494C009847238943EA0020208101F047FC036843
:10495C005B699847608101F041FC03685B6998478B
:10496C00638943EA002060813CE090F920300133F8
:10497C0001D1FFF7A3FE94F91D00002180B201F0D4
:10498C00E6FBE8212046FFF761FEFF212046FFF7FA
:10499C005DFEFF21E0802046FFF758FEE38843EAE6
:1049AC000020E080FF212046FFF750FEFF212081F0
:1049BC002046FFF74BFE238943EA00202081FF218C
:1049CC002046FFF743FEFF2160812046FFF73EFEA5
:1049DC00638943EA0020608194F91D00012180B2B3
:1049EC0001F0B5FB2046FFF70EFF032809D0022883
:1049FC000AD001280BD0002843F6FC7318BF012302
:104A0C0007E04FF4006304E04FF4805301E041F6FB
:104A1C00FE7307EE903AB4F9063007EE103AF8EE52
:104A2C00E77AB8EEC77AB4F90830C7EE276A07EE12
:104A3C00103AB8EEC77AC4ED036AC7EE276AB4F928
:104A4C000A3007EE103AB8EEC77AC4ED046AC7EE26
:104A5C00276AC4ED056A10BD70B50C4624260546C0
:104A6C0032460021204601F01CFF2660AB696360D2
:104A7C000123A360002323612846FFF72DFFEB6879
:104A8C0063612B69A3616B69E36170BD00F010B8C1
:104A9C0008B5024B1B689B68019308BD68020300B4
:104AAC0008B5024B1B68DB68019308BD6802030064
:104ABC0008B5024B1B681B68019308BD2C02030050
:104ACC0008B5024B1B689B68019308BD2C020300C0
:104ADC0008B5024B1B68DB68019308BD2C02030070
:104AEC0008B5024B1B681B69019308BD2C0203001F
:104AFC0008B5024B1B685B69019308BD2C020300CF
:104B0C0008B5024B1B681B68019308BD30020300FB
:104B1C0008B5024B1B689B68019308BD300203006B
:104B2C0008B5024B1B68DB68019308BD300203001B
:104B3C0008B5024B1B681B69019308BD30020300CA
:104B4C0008B5024B1B685B69019308BD300203007A
:104B5C0008B5024B1B68DB69019308BD30020300EA
:104B6C0008B5024B1B681B6A019308BD3002030099
:104B7C0008B5024B1B685B6A019308BD3002030049
:104B8C0008B5024B1B681B6C019308BD3002030077
:104B9C0008B5024B1B685B6C019308BD3002030027
:104BAC0008B5024B1B685B68019308BD1802030033
:104BBC0008B5024B1B685B69019308BD1802030022
:104BCC0008B5024B1B689B68019308BD48020300A3
:104BDC0008B5024B1B681B69019308BD4802030012
:104BEC0008B5024B1B685B69019308BD48020300C2
:104BFC0008B5024B1B685B6C019308BD48020300AF
:104C0C0008B5024B1B689B6C019308BD480203005E
:104C1C0008B5024B1B685B69019308BD6402030075
:104C2C0008B5024B1B681B68019308BD3C020300CE
:104C3C0008B5024B1B68DB68019308BD3C020300FE
:104C4C0008B5024B1B681B69019308BD3C020300AD
:104C5C0008B5024B1B685B69019308BD3C0203005D
:104C6C0008B5024B1B689B69019308BD3C0203000D
:104C7C0008B5024B1B68DB69019308BD3C020300BD
:104C8C0008B5024B1B681B6A019308BD3C0203006C
:104C9C0008B5024B1B689B6A019308BD3C020300DC
:104CAC0008B5024B1B68DB68019308BD28020300A2
:104CBC0008B5024B1B689B69019308BD28020300D1
:104CCC0008B5024B1B68DB69019308BD2802030081
:104CDC0008B5024B1B681B6A019308BD2802030030
:104CEC0008B5024B1B685B6A019308BD28020300E0
:104CFC0008B5024B1B689B6A019308BD2802030090
:104D0C0008B5024B1B68DB6A019308BD280203003F
:104D1C0008B5024B1B681B6B019308BD28020300EE
:104D2C0008B5024B1B685B6B019308BD280203009E
:104D3C0008B5024B1B681B6C019308BD28020300CD
:104D4C0008B5024B1B681B6D019308BD28020300BC
:104D5C0008B5024B1B681B68019308BD4C0203008D
:104D6C0008B5024B1B681B69019308BD4C0203007C
:104D7C0008B5024B1B685B69019308BD4C0203002C
:104D8C0008B5024B1B689B69019308BD4C020300DC
:104D9C0008B5024B1B68DB69019308BD4C0203008C
:104DAC0008B5024B1B681B6A019308BD4C0203003B
:104DBC0008B5024B1B685B68019308BD2002030019
:104DCC0008B5024B1B685B69019308BD2002030008
:104DDC0008B5024B1B68DB6C019308BD2002030075
:104DEC0008B5024B1B685B6D019308BD20020300E4
:104DFC0008B5034B1B68D3F88830019308BD00003D
:104E0C002002030008B5034B1B68D3F894300193C0
:104E1C0008BD00002002030008B5024B1B685B684C
:104E2C00019308BD4002030008B5024B1B689B6848
:104E3C00019308BD4002030008B5024B1B68DB68F8
:104E4C00019308BD4002030008B5024B1B681B69A7
:104E5C00019308BD4002030008B5024B1B685B6957
:104E6C00019308BD4002030008B5024B1B689B6907
:104E7C00019308BD4002030008B5024B1B68DB69B7
:104E8C00019308BD4002030008B5024B1B681B6A66
:104E9C00019308BD4002030008B5024B1B681B6B55
:104EAC00019308BD4002030008B5024B1B685B6B05
:104EBC00019308BD4002030008B5024B1B685B69F7
:104ECC00019308BD4402030008B5024B1B681B6A22
:104EDC00019308BD4402030008B5024B1B68DB6B51
:104EEC00019308BD4402030008B5024B1B681B6804
:104EFC00019308BD1C02030008B5024B1B685B68DC
:104F0C00019308BD1C02030008B5024B1B68DB684B
:104F1C00019308BD1C02030008B5024B1B68DB6A39
:104F2C00019308BD1C02030008B5024B1B681B6BE8
:104F3C00019308BD1C020300002211464068FFF7D4
:104F4C00A3BF002211464068FFF7AEBF00224068A5
:104F5C00FFF7A2BF002281F001014068FFF78CBF70
:104F6C0000231A4619464068FFF77EBF00231A46F5
:104F7C0019464068FFF770BF002211464068FFF7E2
:104F8C0063BF002211464068FFF74EBF002202218A
:104F9C004068FFF751BF00231A464068FFF73CBF3B
:104FAC00024B03225A60024A1A607047DCE4032069
:104FBC00B86A0D000021FFF7E3BD0021FFF7E8BD43
:104FCC0010B5044601700846FFF7C2FD002363606C
:104FDC00204610BD10B504460078FFF7EBFF48B92A
:104FEC0020784FF6FF71FFF78BFD2078BDE810405D
:104FFC00FFF7E3BF10BD38B5044600780D46FFF748
:10500C00D9FF40B920782946FFF782FD2078BDE80A
:10501C003840FFF7D2BF38BD38B5044600780D468E
:10502C00FFF7C8FF40B920782946FFF779FD2078B3
:10503C00BDE83840FFF7C1BF38BD0000400830B5AF
:10504C001860002418688842E5B206D90134082C8F
:10505C0002D040081860F5E70725024B5B5D137022
:10506C0030BD00BFE46A0D002DE9F04188B000238B
:10507C000446007802930E461746FFF79BFF054641
:10508C0000BB94F800800146142203A801F009FC2F
:10509C000B232A4603A94046ADF80C30FFF768FDF8
:1050AC0002AB0DF1070207FB06F104988DF80750CF
:1050BC00FFF7C4FF20789DF80710FFF739FD207823
:1050CC00FFF77BFF029808B0BDE8F08108B50078C7
:1050DC00FFF736FDC0B208BD0078FFF741BD10B533
:1050EC000446006818B1FFF707FF0023236010BDCA
:1050FC0010B50446FFF7F3FF204610BD10B5094C60
:10510C0000204FF6FF732060A080A0712081638186
:10511C00FFF74EFE2046044A0449BDE8104001F05A
:10512C0083B800BFE4E4032014B50320FD500D0048
:10513C0010B50446006808B1FFF762FD204610BDAB
:10514C000B68036013B15A6801325A607047000053
:10515C0010B5064C002320462360FFF749FD20467E
:10516C00034A0449BDE8104001F05EB8F0E40320A6
:10517C0014B503203D510D00F8B506460D468F18A9
:10518C000024BD420CD0336815F8011B9B683046D7
:10519C009847002801DB0444F3E7002C08BF0446C1
:1051AC002046F8BD70B505460C46084649B101F0DD
:1051BC00C4FB2B68024621462846DB68BDE87040DC
:1051CC00184770BD03689B68184730B58BB00B4609
:1051DC0000218DF82410012A98BF0A220DF1230416
:1051EC00B3FBF2F505FB123303F0FF03092B94BF5D
:1051FC0030333733DBB2214604F801392B46002D0E
:10520C00EED1FFF7CFFF0BB030BD0000014B024ACF
:10521C001A607047F4E403205F6B0D00024B1A68B0
:10522C00024B1A60704700BFACB40320F8E40320B3
:10523C000021FFF7C5BD10B58368044613B10322E6
:10524C0001469847204610BD10B50446FFF7F3FF02
:10525C00204610BD13B50B46044603C88DE8030069
:10526C0093E8030084E803009DE8030083E803004F
:10527C0002B010BD0348044A04490023836000F0C7
:10528C00D3BF00BFFCE4032014B5032055520D001E
:10529C0008B50C4B33B100F017FC03681B69984739
:1052AC00002809DC084B63B100F090FC03681B6913
:1052BC009847002803DC08BDAFF30080F2E7AFF39A
:1052CC00008008BD000000000000000008B5FFF7DA
:1052DC00DFFFFFF76DFC014B186008BD30E70320C2
:1052EC000248034A0349121A01F0D0BA00F4032011
:1052FC0004F40320F06D0D0007B5002300931A464B
:10530C006FF07701FFF77EFD03B05DF804FB000042
:10531C0007B543880A2B08D0502B09D1094B1B68C1
:10532C003BB103B05DF804EB1847FFF7E5FF06E06F
:10533C00002300931A466FF07701FFF763FD03B06B
:10534C005DF804FB0CE5032038B5104C104D2368B8
:10535C00AB42104B0CBF012200221A7002D0FFF797
:10536C00BFFF2560FFF71CFC044601F0A3FA0A4BB3
:10537C0013B12046AFF3008000210748FFF7ACFDC6
:10538C0000210648BDE83840FFF732BD00F4032089
:10539C001E1C279A10E50320000000001D530D0071
:1053AC0070470020704710B51021044600F04AFFEA
:1053BC00204610BD08B508B1FFF7F5FF08BD002267
:1053CC00026010B54FF69C728280B1F90440848063
:1053DC008A8002680C6804600A6010BD10B504462F
:1053EC000068FFF789FD204610BD38B5C468F4B1DC
:1053FC002378022B03D104F10C00FFF7EFFF656853
:10540C0035B12846FFF717FF1021284600F01AFF88
:10541C00A56835B12846FFF70EFF1021284600F08D
:10542C0011FF20461421BDE8384000F00BBF38BDF9
:10543C0013B5044691E8050000234B600B60206017
:10544C00626001A801930093FEF73EFE204602B075
:10545C0010BDF7B50C4602AD54F8043B45F8083DB9
:10546C0006460F4601A82146FFF76AFE294630463C
:10547C00FFF7DEFF01A8FEF727FE2046FEF724FE0D
:10548C003846082100F0DEFE304603B0F0BD0000C7
:10549C0038B500230446036010200D46FEF7F5FDD9
:1054AC0028B1012343608360024B0360C560206018
:1054BC00204638BDF46B0D00826810B50AB900F0B7
:1054CC00D4FEC368BDE81040184708B5006800F169
:1054DC001001FFF7F1FF08BD826810B50AB900F0A2
:1054EC00C4FEC368BDE81040184708B5006800F159
:1054FC001001FFF7F1FF08BD38B5002383608B68FE
:10550C0004460D462BB102229847EB68E360AB686A
:10551C00A360204638BD0000F0B589B00468684629
:10552C00FFF74DFF00238DF808304FF00202D4E84E
:10553C004F3F002B03D1C4E8412F0029F7D102D0F3
:10554C008DF8083063E014F10C0503D06946284649
:10555C00FFF735FFBFF35F8F01236370002004F169
:10556C000803BFF35F8F53E8006F43E80002002A83
:10557C00F9D1BFF35F8F002E49D0FFF729FC20B182
:10558C0029463046FFF798FF3AE0314602A8FFF76C
:10559C00B3FFE068B4F9105008B101F0B3F906900C
:1055AC001020ADF81C50FEF770FD0546E8B1002741
:1055BC0087601820FEF769FD044688B101468760B4
:1055CC0002A8FFF747FE049BA268A360059B049208
:1055DC0006A9E268E36004F110000592FFF7EFFE04
:1055EC000D4BEB600D4B2C60AB6006A8FFF7F6FE85
:1055FC0002A8FFF720FE002229460948FFF7F0FB1E
:10560C003046FFF718FE1021304600F01BFE6846AE
:10561C00FFF7E4FE09B0F0BDD7540D004D570D0057
:10562C00595C0D002DE9F04F8BB006460F469046A5
:10563C0099469DF850A0FFF73FFC07AD834630BB61
:10564C004FF62E73059005A92846ADF81830FFF7D4
:10565C00B6FE1420FEF719FD044658B10223037060
:10566C0001234370C0F804B0C0F808B029460C30D0
:10567C00FFF7A5FE3046214640F8044BFFF708FF24
:10568C002846FFF7ABFE05A8FFF7A8FE52E0002462
:10569C000C2314206C60AC600793FEF7F6FC0146FB
:1056AC0018B1047044704460846004A80391FFF73F
:1056BC00EFFE224B08930820FEF7E7FC044628B1C6
:1056CC00039B40F8043B04A9FFF73AFD00955FFAF1
:1056DC008AF34A46414638460994FFF7F5FB20B950
:1056EC00039B5B7803F0FF0283B1039B059304A932
:1056FC0006A8FFF725FD05A93046FFF799FE06A879
:10570C00FEF7E2FC04A8FEF7DFFC13E04FF69C73F7
:10571C0005A903A80592ADF81830FFF7FDFE05A802
:10572C00FFF75CFE05A80999FFF793FE06A8FEF7A4
:10573C00CBFCDAE730460BB0BDE8F08FBD580D005E
:10574C00022AF8B5044606D0032A17D0012A22D122
:10575C000B6803601FE018200E68FEF796FC0546E8
:10576C0050B13146FFF7C8FE3069B6F9147008B174
:10577C0001F0C8F82861AF8225600CE0046854B1D0
:10578C0004F11000FFF72AFE2046FFF754FD182104
:10579C00204600F057FD0020F8BD38B5002383608B
:1057AC008B6804460D462BB102229847EB68E360E8
:1057BC00AB68A360204638BD022A70B5044606D0FB
:1057CC00032A11D0012A18D10B68036015E01420AC
:1057DC000E68FEF75AFC054620B13146FFF7DDFF97
:1057EC00337C2B74256008E0046834B12046FFF745
:1057FC0022FD1421204600F025FD002070BD000084
:10580C00F0B5002387B00C46BFF35F8F50E8006FF4
:10581C0040E80032002AF9D1BFF35F8F002E3FD051
:10582C001846FFF7D5FA074620B121463046FFF758
:10583C0053FE2EE0314601A8FFF7AFFF23788DF819
:10584C0014301020FEF721FC0546D0B187601420DF
:10585C00FEF71BFC044678B18760014601A8FFF7F0
:10586C00F9FC039BA268A360049B0392E268E360CB
:10587C009DF81430049223740A4BEB600A4B2C6095
:10588C00AB6001A8FFF7D7FC002229460748FFF7B9
:10589C00A7FA3046FFF7CFFC1021304600F0D2FCBF
:1058AC0007B0F0BDF7540D00C5570D00595C0D0045
:1058BC0030B585B004460D4668461146FFF7C9FD64
:1058CC007CB124B228460DB101F01CF8029002A95B
:1058DC006846ADF80C40FFF71FFE02A8FFF77EFDEF
:1058EC001DE000988DF808404FF00102D0E84F3FC2
:1058FC00A34203D1C0E8412F0029F7D102D08DF883
:10590C0008300CE010F10C014FF0010318BF0373C9
:10591C00BFF35F8F043000F8033CFFF771FF01A861
:10592C00FEF7D2FB05B030BD704710B51821044608
:10593C0000F088FC204610BDF0B5037D062B8DB021
:10594C000E4600F104074FF0000402D000F10805E8
:10595C0018E00CAD394605F8304D2F232A460A20A5
:10596C00FFF756F9284600F0E8FF33680246DB687B
:10597C002946304698470FE024B12E213046FFF7D8
:10598C0021FC044415F8011D0A223046FFF71DFCCA
:10599C00BD420444F0D120460DB0F0BD10B5054B0E
:1059AC000446112240F8043B002100F07AFF204607
:1059BC0010BD00BF106C0D000346074A10B543F82C
:1059CC00042B01F1100251F8044B43F8044B9142A3
:1059DC00F9D10A781A7010BD106C0D0010B59DF835
:1059EC00084044EA032343EA024242EA01610423E9
:1059FC004160037510BD37B50D788B784A78C9783E
:105A0C0000912946FFF7EAFF03B030BD417470479F
:105A1C00704708B50021007CFFF7B2F930EA20008E
:105A2C0028BF4FF0FF3008BD08B50121007CFFF7FF
:105A3C00A7F930EA200028BF4FF0FF3008BD08B5A9
:105A4C00007CFFF795F920EAE07008BD08B5007CF2
:105A5C00FFF786F920EAE07008BD007CFFF7A0B9DB
:105A6C0010B51421044600F0EDFB204610BD38B5EE
:105A7C000446007C0D46FFF77BF9002801DC607CB6
:105A8C0028B12946207CFFF783F920EAE07038BD65
:105A9C0010B50446002363604FF47A73A360054B82
:105AAC00236001230846217463741146FFF750F9F3
:105ABC00204610BD246C0D0010B5142204460021A4
:105ACC0000F0EFFE204610BD30B50E4D87B001A89A
:105ADC00FFF7F2FF296811F0010410D12846FEF7F8
:105AEC00DAFA60B101AA21460748FFF7D1FF284630
:105AFC00FEF7D6FA054A0649034800F095FB024822
:105B0C0007B030BD14E5032018E5032014B50320BD
:105B1C001D5A0D0070474174704708B5007CFFF7A3
:105B2C00B7F820EAE07008BD08B5007CFFF788F8EC
:105B3C0020EAE07008BD08B5007CFFF791F830EA68
:105B4C00200028BF4FF0FF3008BD08B5007CFFF7E0
:105B5C007FF830EA200028BF4FF0FF3008BD007CF2
:105B6C00FFF786B810B51421044600F06BFB2046F5
:105B7C0010BD70B5457C04460E4625B9007CFFF778
:105B8C0087F8002805DD3146207CBDE87040FFF722
:105B9C004FB8284670BD000010B5044608461146A3
:105BAC00002262604FF47A72A260054A22600122E0
:105BBC00207462741A46FFF733F8204610BD00BFFC
:105BCC00546C0D00007CFFF75BB80000F8B5194C65
:105BDC0025684DB98420FEF758FA064618B1842280
:105BEC00294600F05EFE2660134D2E684EB98420C7
:105BFC00FEF74BFA074618B18422314600F051FEED
:105C0C002F600E4F396811F0010611D13846FEF79E
:105C1C0042FA68B122682B6809483146FFF7BCFF8D
:105C2C003846FEF73DFA074A0749054800F0FCFAEA
:105C3C000348F8BD48E5032040E5032044E5032074
:105C4C002CE5032014B50320215B0D0010B58368EF
:105C5C0004460BB900F009FBC3689847A3681BB155
:105C6C00032221462046984720461021BDE81040CB
:105C7C0000F0E8BA7047F8B5064615460C468F1882
:105C8C00BC4206D0336814F8011B9B683046984719
:105C9C00F6E72846F8BD0022007CFFF719B8002172
:105CAC00007CFFF71DB80021007CFFF721B8002114
:105CBC00007CFFF725B80021007CFFF729B810B550
:105CCC001421044600F0BEFA204610BD10B504465F
:105CDC00002363604FF47A73A360044B217408466D
:105CEC0023601146FFF724F8204610BD846C0D008C
:105CFC0000231A461946007CFEF7D2BF70B50C463D
:105D0C0086B0142506462A46002101A800F0C9FDDC
:105D1C0023788DF8083063680393E36804930022BA
:105D2C00237A307CADF8045001A90593FFF708F8ED
:105D3C0006B070BD1FB500338DF800104FF0640134
:105D4C00039118BF0123694601928DF80830FFF7C3
:105D5C00D5FF05B05DF804FB0123FFF7EBBF002274
:105D6C00007CFEF7A5BFC9B2FFF7F9BF0022007C8B
:105D7C00FEF7A6BF0121FFF7F9BF0021007CFEF75B
:105D8C00CFBF002211464068FFF77EB800221146B3
:105D9C004068FFF789B800224068FFF77DB8002201
:105DAC0081F001014068FFF767B800231A46012112
:105DBC004068FFF759B800231A4619464068FFF7A8
:105DCC004BB8002211464068FFF73EB8002211463E
:105DDC004068FFF729B8002202214068FFF72CB871
:105DEC0000231A464068FFF717B838B5054688B146
:105DFC0004684CB1A3681BB1032221462046984786
:105E0C001021204600F01EFA28461421BDE8384027
:105E1C0000F018BA38BD10B103685B6818477047BA
:105E2C0010B503680446BBB15868FEF7C9FE78B9D3
:105E3C0023685A7C12B95868FEF7CAFE2368586862
:105E4C00FEF7CEFE20680023236028B1FFF7CDFFBC
:105E5C00206808B1FFF7C9FF204610BD38B50446CD
:105E6C00D0F8C40108B1FEF714F9D4F8C00108B198
:105E7C00FEF7C6FED4F8BC5135B12846FFF7D0FF6B
:105E8C000421284600F0DEF9206808B1FFF7C3FFB3
:105E9C00204638BD10B5044B044640F8083BFFF7CC
:105EAC00DDFF204610BD00BFAC6C0D0038B50E4CAC
:105EBC000E4B23600025022304F5E4706360A5609B
:105ECC00C4F8C451C4F8C851FEF792FE084BC4F88C
:105EDC00CC5184F8D05123602046064A0649BDE8CF
:105EEC00384000F0A1B900BF4CE50320146D0D0043
:105EFC00AC6C0D0014B50320A15E0D000022114600
:105F0C004068FEF7A1BF002211464068FEF7BCBFF7
:105F1C00002211464068FEF7C7BF00224068FEF71A
:105F2C00BBBF002281F001014068FEF7A5BF002332
:105F3C001A4619464068FEF797BF00231A461946C1
:105F4C004068FEF789BF002211464068FEF76CBF1F
:105F5C00002202214068FEF76FBF00231A464068FA
:105F6C00FEF75ABF024B04225A60024A1A6070476D
:105F7C0020E70320E06C0D0000231A464068FEF772
:105F8C004BBF002202214068FEF756BF002211468B
:105F9C004068FEF749BF002211464068FEF754BF27
:105FAC0000231A4619464068FEF756BF00231A46CE
:105FBC0019464068FEF758BF002281F00101406885
:105FCC00FEF75ABF00224068FEF766BF002211465A
:105FDC004068FEF769BF002211464068FEF754BFC7
:105FEC002DE9F043002495B016460D460746FFF701
:105FFC00D5FC214620220CA8009400F052FC402332
:10600C000C9321466B460CAA3046FEF749FD04461C
:10601C00002844D1024601216868FEF715FF0221D1
:10602C00804622466868FEF70FFF009E8146214697
:10603C00002E34D0002932D17368022B02D00A2BE7
:10604C0009D02AE0B8F1000F27D071693846043125
:10605C00FFF7D1FC20E0B9F1000F1ED074691122BA
:10606C0001A800F01EFC06238DF8143001AD04F1DC
:10607C0008031834186859682A4603C20833A34227
:10608C001546F7D101A906A807ADFFF795FC0FCD72
:10609C003C1D0FC42B6823700121F669C8E70098DA
:1060AC00FEF7F6FC384615B0BDE8F083024B034A08
:1060BC001A6000225A60704728E70320146D0D0007
:1060CC0070B5184E316811F0010504460AD13046FE
:1060DC00FDF7E1FF30B129461348FEF771FF30465A
:1060EC00FDF7DEFF1048FEF7F7FF28B1A4F10B0314
:1060FC00022B01D8002070BD00F070F8FFF73DFEB8
:10610C0008B1012CF6D9FFF761FDFFF75BFD18B163
:10611C00A4F10903012BEDD9232C8CBF0020012005
:10612C0070BD00BFD0E40320D4E40320232838B58D
:10613C0004460D460AD8FF2908D0FFF7C1FF28B145
:10614C0029462046BDE83840FEF7BABC38BD38B504
:10615C0004460D46FEF7BCFCFF2810D0062804D8D8
:10616C004D2323FA00F0C30709D42046FFF7A8FFFC
:10617C0028B129462046BDE83840FEF7B1BC38BDF1
:10618C0010B50446FEF7A4FC0438C0B2012808D9A7
:10619C002046FFF795FF20B12046BDE81040FEF7E2
:1061AC00A7BC002010BD000070B5044614252A467B
:1061BC00094E002100F075FB258020253146A56095
:1061CC002561284600F040F831466060284600F012
:1061DC003BF8E060204670BD406D0D0030B50E4DB3
:1061EC00296811F0010487B013D12846FDF753FF3D
:1061FC0078B101A8FFF7D8FF01AA21460748FFF79D
:10620C0065FD2846FDF74CFF054A0649034800F09A
:10621C000BF8024807B030BD34E7032038E7032001
:10622C0014B50320815C0D000B460146184600F0A6
:10623C001FBB0000024B1868BFF35F8F704700BF95
:10624C004CE70320FDF723BF00F000B810B5002881
:10625C0014BF044601242046FEF746FE20B9FFF782
:10626C00E9FF08B18047F6E710BD08B5FEF754FE0C
:10627C00184B1A68D1075CBF01221A60164B1A68BA
:10628C00D2075CBF01221A60144B1A68D0075CBF9E
:10629C0001221A60124B1A68D1075CBF01221A60E6
:1062AC00104B1A68D2075CBF01221A600E4B1A6899
:1062BC00D0075CBF01221A600C4B1A68D1075CBF77
:1062CC0001221A600A4B1A68D2075CBF01221A60BD
:1062DC00704700BF6CE7032068E7032064E70320E6
:1062EC0060E703205CE7032058E7032054E7032012
:1062FC0050E70320244B1A68D0075CBF01221A60B8
:10630C00224B1A68D1075CBF01221A60204B1A6815
:10631C00D2075CBF01221A601E4B1A68D0075CBF03
:10632C0001221A601C4B1A68D1075CBF01221A604B
:10633C001A4B1A68D2075CBF01221A60184B1A68F4
:10634C00D0075CBF01221A60164B1A68D1075CBFDC
:10635C0001221A60144B1A68D2075CBF01221A6022
:10636C00124B1A68D0075CBF01221A60104B1A68D6
:10637C00D1075CBF01221A600E4B1A68D2075CBFB2
:10638C0001221A60704700BF9CE7032098E70320A6
:10639C0094E7032090E703208CE7032088E7032091
:1063AC0084E7032080E703207CE7032078E70320C1
:1063BC0074E7032070E70320244B1A68D0075CBFF6
:1063CC0001221A60224B1A68D1075CBF01221A60A5
:1063DC00204B1A68D2075CBF01221A601E4B1A6848
:1063EC00D0075CBF01221A601C4B1A68D1075CBF36
:1063FC0001221A601A4B1A68D2075CBF01221A607C
:10640C00184B1A68D0075CBF01221A60164B1A6829
:10641C00D1075CBF01221A60144B1A68D2075CBF0B
:10642C0001221A60124B1A68D0075CBF01221A6055
:10643C00104B1A68D1075CBF01221A600E4B1A6808
:10644C00D2075CBF01221A60704700BFCCE7032063
:10645C00C8E70320C4E70320C0E70320BCE7032000
:10646C00B8E70320B4E70320B0E70320ACE7032030
:10647C00A8E70320A4E70320A0E70320184B1A6821
:10648C00D1075CBF01221A60164B1A68D2075CBF99
:10649C0001221A60144B1A68D0075CBF01221A60E3
:1064AC00124B1A68D1075CBF01221A60104B1A6894
:1064BC00D2075CBF01221A600E4B1A68D0075CBF72
:1064CC0001221A600C4B1A68D1075CBF01221A60BA
:1064DC000A4B1A68D2075CBF01221A60704700BFD2
:1064EC00ECE70320E8E70320E4E70320E0E70320E0
:1064FC00DCE70320D8E70320D4E70320D0E7032010
:10650C0081F0004102E000BF83F0004330B54FEA58
:10651C0041044FEA430594EA050F08BF90EA020FC5
:10652C001FBF54EA000C55EA020C7FEA645C7FEA58
:10653C00655C00F0E2804FEA5454D4EB5555B8BF7B
:10654C006D420CDD2C4480EA020281EA030382EAEC
:10655C00000083EA010180EA020281EA0303362D7E
:10656C0088BF30BD11F0004F4FEA01314FF4801C51
:10657C004CEA113102D0404261EB410113F0004F63
:10658C004FEA03334CEA133302D0524263EB43031A
:10659C0094EA050F00F0A780A4F10104D5F1200EB8
:1065AC000DDB02FA0EFC22FA05F2801841F1000113
:1065BC0003FA0EF2801843FA05F359410EE0A5F1E7
:1065CC0020050EF1200E012A03FA0EFC28BF4CF018
:1065DC00020C43FA05F3C01851EBE37101F00045CE
:1065EC0007D54FF0000EDCF1000C7EEB00006EEBDB
:1065FC000101B1F5801F1BD3B1F5001F0CD3490865
:10660C005FEA30004FEA3C0C04F101044FEA4452BB
:10661C0012F5800F80F09A80BCF1004F08BF5FEA42
:10662C00500C50F1000041EB045141EA050130BD22
:10663C005FEA4C0C404141EB010111F4801FA4F1C5
:10664C000104E9D191F0000F04BF01460020B1FA1A
:10665C0081F308BF2033A3F10B03B3F120020CDA52
:10666C000C3208DD02F1140CC2F10C0201FA0CF030
:10667C0021FA02F10CE002F11402D8BFC2F1200C95
:10668C0001FA02F120FA0CFCDCBF41EA0C0190404B
:10669C00E41AA2BF01EB0451294330BD6FEA040494
:1066AC001F3C1CDA0C340EDC04F11404C4F120027F
:1066BC0020FA04F001FA02F340EA030021FA04F391
:1066CC0045EA030130BDC4F10C04C4F1200220FAE8
:1066DC0002F001FA04F340EA0300294630BD21FA26
:1066EC0004F0294630BD94F0000F83F4801306BFEC
:1066FC0081F480110134013D4EE77FEA645C18BFE0
:10670C007FEA655C29D094EA050F08BF90EA020F76
:10671C0005D054EA000C04BF1946104630BD91EA6E
:10672C00030F1EBF0021002030BD5FEA545C05D171
:10673C004000494128BF41F0004130BD14F58004B0
:10674C003CBF01F5801130BD01F0004545F0FE4124
:10675C0041F470014FF0000030BD7FEA645C1ABF59
:10676C00194610467FEA655C1CBF0B46024650EA90
:10677C00013406BF52EA033591EA030F41F40021BC
:10678C0030BD00BF90F0000F04BF0021704730B542
:10679C004FF4806404F132044FF000054FF0000117
:1067AC0050E700BF90F0000F04BF0021704730B5D8
:1067BC004FF4806404F1320410F0004548BF4042AD
:1067CC004FF000013EE700BF42004FEAE2014FEA02
:1067DC0031014FEA02701FBF12F07F4393F07F4FDD
:1067EC0081F06051704792F0000F14BF93F07F4F0F
:1067FC00704730B54FF4607401F0004521F0004152
:10680C0020E700BF50EA010208BF704730B54FF0D7
:10681C0000050AE050EA010208BF704730B511F0DC
:10682C00004502D5404261EB41014FF4806404F114
:10683C0032045FEA915C3FF4DCAE4FF003025FEA96
:10684C00DC0C18BF03325FEADC0C18BF033202EB1E
:10685C00DC02C2F1200300FA03FC20FA02F001FA78
:10686C0003FE40EA0E0021FA02F11444C1E600BF17
:10687C0010B5054C13462CB10A4601460220AFF365
:10688C00008010BD204610BD0000000010B5431E56
:10689C000A44914204D011F8014B03F8014FF8E778
:1068AC0010BD02440346934202D003F8011BFAE7E1
:1068BC007047000038B5124B1C68A36B0546D3B962
:1068CC001820FEF711FB43F20E33A06303804AF647
:1068DC00CD33438041F2342383804EF26D63C38009
:1068EC004DF6EC630381052343810B238381012245
:1068FC000023C0E90423A36B00221D615A6138BD3B
:10690C0010B50320024B0146186800F003B800BF15
:10691C0010B5032070B5064608460C4600F00DF87D
:10692C00451C29463046FEF7FFFA064618B12A46A2
:10693C002146FFF7ABFF304670BD034613F8012B21
:10694C00002AFBD1181A0138704710B5034642B122
:10695C0011F8014B03F8014B013A002CF7D11A4402
:10696C0000E010BD934202D003F8014BFAE710BDD2
:10697C001D400D0059400D0085400D0089400D0053
:10698C00000000004C495333444820636F6E666925
:10699C006775726174696F6E206572726F720065D3
:1069AC0076004C495333444820636F6E66696775B3
:1069BC00726564207375636365737366756C6C794B
:1069CC000025640025660044726976652068617351
:1069DC0020656E6465642E0058204576656E747370
:1069EC003A0059204576656E74733A005A20457604
:1069FC00656E74733A0053756D206F6620583A00BB
:106A0C0053756D206F6620593A0053756D206F6673
:106A1C00205A3A00596F7572205820416363656C97
:106A2C0065726174696F6E2053636F72653A0059B9
:106A3C006F7572205920416363656C65726174696E
:106A4C006F6E2053636F72653A2000596F75722018
:106A5C005A20416363656C65726174696F6E205373
:106A6C00636F72653A2000596F757220546F7461B0
:106A7C006C2053636F72653A00580059005A004CF1
:106A8C00495333444800000000000000000000009F
:106A9C00B5400D0081450D00B3400D00654A0D0059
:106AAC00C9450D000000000000000000A34F0D00C0
:106ABC00994F0D008F4F0D00854F0D00794F0D0034
:106ACC006D4F0D00614F0D00594F0D004F4F0D00D4
:106ADC00454F0D00ED5F0D000008101820283038D0
:106AEC00626175640053657269616C00536572690B
:106AFC00616C31007479706500706172616D006356
:106B0C006D6400696400686E64007374726D006675
:106B1C00696C74006C766C0061646448616E646CC2
:106B2C0065720072656D6F766548616E646C657236
:106B3C0000656E756D48616E646C657273004A53C6
:106B4C004F4E53747265616D4C6F6748616E646C27
:106B5C0065720061707000253031307520005D2049
:106B6C00002C200028293A2000205B00636F64650C
:106B7C00203D200025690064657461696C73203DBB
:106B8C0020000D0A006C6E00666E00636F64650079
:106B9C0064657461696C006E6F6E6500747261631C
:106BAC006500696E666F007761726E0070616E6968
:106BBC006300616C6C00252B3033643A25303275E0
:106BCC000025592D256D2D25645425483A254D3A1F
:106BDC002553257A0061736374696D6500000000AC
:106BEC000000000000000000AD530D00B3530D0079
:106BFC00F7530D00C1530D00AF530D000000000002
:106C0C000000000045590D0035590D0037590D0095
:106C1C0000000000000000001D5A0D006D5A0D0010
:106C2C007B5A0D0085510D00595A0D001F5A0D004D
:106C3C00355A0D00675A0D004B5A0D00195A0D00AC
:106C4C000000000000000000215B0D00715B0D00D6
:106C5C007F5B0D0085510D00355B0D00575B0D0002
:106C6C00435B0D006B5B0D00235B0D00275B0D0080
:106C7C000000000000000000815C0D00CB5C0D00EA
:106C8C00A35C0D00835C0D00AB5C0D00B35C0D00D0
:106C9C00BB5C0D00C35C0D00000000000000000098
:106CAC00ED5D0D00E35D0D00D95D0D00CF5D0D00B8
:106CBC00C35D0D00B75D0D00AB5D0D00A35D0D0058
:106CCC00995D0D008F5D0D00ED5F0D000000000063
:106CDC0000000000675F0D005D5F0D00535F0D004D
:106CEC00095F0D00475F0D003B5F0D002F5F0D002E
:106CFC00275F0D001D5F0D00135F0D00ED5F0D0094
:106D0C000000000000000000855F0D008F5F0D008B
:106D1C00995F0D00A35F0D00AD5F0D00B95F0D0015
:106D2C00C55F0D00D15F0D00D95F0D00E35F0D0055
:106D3C00ED5F0D00000000000000000000000000EE
:106D4C000000000000000000000000000000000037
:106D5C000000000000000000000000000000000027
:106D6C000000000000000000000000000000000017
:106D7C000000000000000000000000000000000007
:106D8C0000000000000000000000000000000000F7
:106D9C0000000000000000004300000091450D00C1
:106DAC00C5450D00994A0D00AD4F0D0009510D0060
:106DBC005D510D0019520D0029520D0081520D002C
:106DCC00B95E0D00715F0D00B9600D007D620D00A4
:106DDC0001630D00C5630D0089640D000000000007
:046DEC0000000000A3
:046DF000000000009F
:106DF40001000000E16B0D0000000000446D0D0077
:106E0400646D0D00846D0D000000000000000000A2
:106E14000000000000000000A46D0D000000000050
:106E2400000000000000000000000000000000005E
:106E3400000000000000000000000000000000004E
:106E4400000000000000000000000000000000003E
:0C6E54000000000000000000B0B40320AB
:106E6000FFFFFFFF00000102030405060708090AEF
:106E70000B0C0D0E0F101112131415161718191AEA
:086E80001B1C1D1E1F20280031
:046E880078563412F2
:04000003D000401CCD
:00000001FF
