:02000004080AE8
:1000000000000A08342D0A08000006000600050159
:080010000402E80500000000F5
:040018005C290A084D
:10001C0009480A4908B5884205D0094A824202D0EB
:10002C00121A02F023FC0748074A0021121A02F0A8
:10003C0028FC064808BD00BF00000020A42C0A08BC
:10004C006800002068000020780200207802002060
:10005C0070B500F081FF074B074C1E46E41AA4084C
:10006C000025A54204D056F8253098470135F8E70D
:10007C0070BD00BF682C0A08A02C0A0800F040B81C
:10008C0008B500F071F8BDE8084000F027BF00F09B
:10009C0073BD00F079BD0078B0FA80F0400970476C
:1000AC0001230370704770477047000013B5044676
:1000BC00054B064A1B788DF800300B46044901F0BD
:1000CC00B9F8204602B010BD6C00002070290A0857
:1000DC0073290A0838B5046805467CB16368013B8E
:1000EC0063605BB9236820469B689847A368013B13
:1000FC00A3601BB923682046DB689847284638BDA7
:10010C001FB51821134800F008FA134C58B923787E
:10011C0002A88DF80030114A3C23114901F08AF8ED
:10012C0003A8FFF7D7FF01210A4800F0CDF9237887
:10013C000C4A0B498DF8003002A83C2301F07AF8E8
:10014C0003A8FFF7C7FF4FF47A7000F065FE04B008
:10015C0010BD00BF700000206C00002076290A083A
:10016C0073290A0891290A082DE9F743294C2A48D2
:10017C00214600F0DCFA606902F090F8804689466E
:10018C00264FA069C7E9008902F088F8244E254D56
:10019C00C6E90001E06902F081F8234CC5E90001D1
:1001AC0042464B462146214800F0F6FCD6E9002396
:1001BC0021461F4800F0F0FCD5E9002321461D48DC
:1001CC0000F0EAFCD7E9000102F0BCF801466846F1
:1001DC00FFF76CFF01A8FFF77DFFD6E9000102F0E5
:1001EC00B1F801466846FFF761FF01A8FFF772FFFF
:1001FC00D5E9000102F0A6F801466846FFF756FF64
:10020C0001A8FFF767FF4FF47A7000F005FE03B00A
:10021C00BDE8F083E000002070000020D800002032
:10022C00C0000020A000002070290A08A8000020AF
:10023C00B2000020C800002010B504462C2101F0AB
:10024C006BFD204610BD000010B5084B084C002279
:10025C001A7000F089FA204600F03AF82046BDE802
:10026C001040044A044901F049BD00BF6C00002055
:10027C007000002068000020B5000A0800F074BA75
:10028C0010B50446806808B100F0EEFA204610BDA7
:10029C0038B50C46054628220021204602F0F1FA1A
:1002AC000B220849204602F040FB00230122E37296
:1002BC00E260A9696362002321616261A361E36169
:1002CC00236238BDB0290A080368C9B29B68184775
:1002DC00064AFF2102604FF0FF3282614277C277FB
:1002EC0080F820201122817742627047C0290A08C9
:1002FC0038B50B4D296811F001040FD12846FFF7D2
:10030C00CAFE58B12146074800F064FC2846FFF7A6
:10031C00C7FE054A0549034801F0F0FC014838BD09
:10032C000401002008010020680000208D020A084A
:10033C002DE9F04190F92030054601330F4606D1E6
:10034C00FFF7D6FF3946BDE8F04100F0CABC0726DE
:10035C0000244FF0010895F92000002180B201F033
:10036C0048FC95F91E0008FA06F1394080B201F0FC
:10037C0040FC95F92000012180B201F03AFC95F97E
:10038C001F00640080B2E4B201F04CFC08B144F0F0
:10039C00010416F1FF36DED22046BDE8F0810000E4
:1003AC0008B5FFF7A5FF012100F033FCFFF7A0FF14
:1003BC000549012200F064FCFFF79AFFBDE80840F4
:1003CC00002100F036BC00BF20A1070070B590F9E9
:1003DC001D30044601330E46154616D101F068FC5B
:1003EC00217F01F0E4FA01F063FC036831469B685D
:1003FC00984701F05DFC036829469B68984701F01B
:10040C0057FCBDE8704001F0DDBA90F920300133A3
:10041C0001D1FFF7C5FF94F91D00002180B201F056
:10042C00E8FB06F07F012046FFF782FF29462046B5
:10043C00FFF77EFF94F91D00012180B2BDE87040EA
:10044C0001F0D7BB38B590F91D30044601330D4689
:10045C001CD101F02DFC94F91C1001F0ACFA01F048
:10046C0027FC036829469B68984701F021FC01F0A2
:10047C00A9FA01F01DFC0122217F01F095FA01F08F
:10048C0017FC03685B699847C5B21BE090F92030F4
:10049C00013301D1FFF784FF94F91D00002180B2D4
:1004AC0001F0A7FB45F080012046FFF741FF00213A
:1004BC002046FFF73DFF054694F91D00012180B24F
:1004CC0001F097FB284638BD38B50D46232104466C
:1004DC00FFF7B8FF20F0300040EA0512D2B22046F8
:1004EC00BDE838402321FFF771BF08B52321FFF782
:1004FC00A9FFC0F3011008BD38B50D4620210446F4
:10050C00FFF7A0FF00F00F0040EA0512D2B2204620
:10051C00BDE838402021FFF759BF10B504460177DC
:10052C0090F91D00421C04D101F0C2FB01F008FA45
:10053C0022E0012180B201F05CFB94F91D00012145
:10054C0080B201F045FB94F92000431C04D1FFF765
:10055C00CFFE00F04EFB0FE0012180B201F038FB22
:10056C0094F91E00012180B201F032FB94F91F00B6
:10057C00002180B201F02CFB0F212046FFF762FF17
:10058C00332819D1072220462021FFF71FFF2046D0
:10059C000721FFF7B1FF204688222321FFF716FF22
:1005AC00204610222221FFF711FF204680221F2116
:1005BC00FFF70CFF012010BD002010BD38B590F9DD
:1005CC001D300446013342D101F072FB94F91C102A
:1005DC0001F0F1F901F06CFBA821FFF775FE01F0B9
:1005EC0067FB01F0EFF901F063FB0622217F01F0BC
:1005FC00DBF901F05DFB03685B699847E08001F073
:10060C0057FB03685B699847E38843EA0020E08066
:10061C0001F04EFB03685B699847208101F048FBB1
:10062C0003685B699847238943EA0020208101F025
:10063C003FFB03685B699847608101F039FB0368F5
:10064C005B699847638943EA002060813CE090F93C
:10065C002030013301D1FFF7A3FE94F91D000021D6
:10066C0080B201F0C6FAE8212046FFF761FEFF21B7
:10067C002046FFF75DFEFF21E0802046FFF758FE85
:10068C00E388FF2143EA0020E0802046FFF750FE7C
:10069C00FF2120812046FFF74BFE2389FF2143EAEF
:1006AC00002020812046FFF743FEFF216081204679
:1006BC00FFF73EFE6389012143EA0020608194F933
:1006CC001D0080B201F095FA2046FFF70EFF0328BB
:1006DC0009D002280AD001280BD0002843F6FC7060
:1006EC0018BF012007E04FF4006004E04FF4805085
:1006FC0001E041F6FE7001F007FF0546B4F9060073
:10070C0001F002FF294602F007F8E060B4F9080096
:10071C0001F0FAFE294601F0FFFF2061B4F90A004E
:10072C0001F0F2FE294601F0F7FF606138BD70B5AB
:10073C000C460546242632460021204602F0A1F83C
:10074C002660AB69284663600123A3600023236104
:10075C00FFF734FFEB6863612B69A3616B69E3619D
:10076C0070BD00F001B8000008B5024B1B681B6897
:10077C00019308BDB001060808B5024B1B689B68C5
:10078C00019308BDB001060808B5024B1B68DB6875
:10079C00019308BDB001060808B5024B1B681B6924
:1007AC00019308BDB001060808B5024B1B685B69D4
:1007BC00019308BDB001060808B5024B1B681B6805
:1007CC00019308BDB401060808B5024B1B689B6871
:1007DC00019308BDB401060808B5024B1B68DB6821
:1007EC00019308BDB401060808B5024B1B681B69D0
:1007FC00019308BDB401060808B5024B1B685B6980
:10080C00019308BDB401060808B5024B1B68DB69EF
:10081C00019308BDB401060808B5024B1B681B6A9E
:10082C00019308BDB401060808B5024B1B685B6A4E
:10083C00019308BDB401060808B5024B1B685B6840
:10084C00019308BD9C01060808B5024B1B685B6947
:10085C00019308BD9C01060808B5024B1B685B6C34
:10086C00019308BDD001060808B5024B1B689B6CB0
:10087C00019308BDD001060808B5024B1B68DB6C60
:10088C00019308BDD001060808B5024B1B685B6DCF
:10089C00019308BDD001060808B5024B1B689B6983
:1008AC00019308BDC401060808B5024B1B685B6ABE
:1008BC00019308BDC401060808B5024B1B689B6A6E
:1008CC00019308BDC401060808B5024B1B68DB6A1E
:1008DC00019308BDC401060808B5024B1B681B6BCD
:1008EC00019308BDC401060808B5024B1B685B6B7D
:1008FC00019308BDC401060808B5024B1B689B6B2D
:10090C00019308BDC401060808B5024B1B681B6C9B
:10091C00019308BDC401060808B5024B1B68DB6CCB
:10092C00019308BDAC01060808B5024B1B689B6D12
:10093C00019308BDAC01060808B5024B1B68DB6DC2
:10094C00019308BDAC01060808B5024B1B681B6E71
:10095C00019308BDAC01060808B5024B1B685B6E21
:10096C00019308BDAC01060808B5024B1B689B6ED1
:10097C00019308BDAC01060808B5024B1B68DB6E81
:10098C00019308BDAC01060808B5024B1B681B6F30
:10099C00019308BDAC01060808B5024B1B685B6FE0
:1009AC00019308BDAC01060808B5034B1B68D3F8CE
:1009BC008030019308BD0000AC01060808B5034B5C
:1009CC001B68D3F89030019308BD0000AC010608F9
:1009DC0008B5024B1B681B68019308BDD8010608BB
:1009EC0008B5024B1B681B69019308BDD8010608AA
:1009FC0008B5024B1B685B69019308BDD80106085A
:100A0C0008B5024B1B689B69019308BDD801060809
:100A1C0008B5024B1B68DB69019308BDD8010608B9
:100A2C0008B5024B1B681B6A019308BDD801060868
:100A3C0008B5024B1B689B6C019308BDC0010608EE
:100A4C0008B5024B1B685B68019308BDA40106083E
:100A5C0008B5024B1B685B69019308BDA40106082D
:100A6C0008B5024B1B68DB6C019308BDA40106089A
:100A7C0008B5024B1B685B6D019308BDA401060809
:100A8C0008B5034B1B68D3F89030019308BD0000E8
:100A9C00A401060808B5034B1B68D3F89C300193DE
:100AAC0008BD0000A401060808B5024B1B685B6872
:100ABC00019308BDC801060808B5024B1B689B686A
:100ACC00019308BDC801060808B5024B1B68DB681A
:100ADC00019308BDC801060808B5024B1B681B69C9
:100AEC00019308BDC801060808B5024B1B685B6979
:100AFC00019308BDC801060808B5024B1B689B6929
:100B0C00019308BDC801060808B5024B1B68DB69D8
:100B1C00019308BDC801060808B5024B1B681B6A87
:100B2C00019308BDC801060808B5024B1B681B6B76
:100B3C00019308BDC801060808B5024B1B685B6B26
:100B4C00019308BDC801060808B5024B1B685B6918
:100B5C00019308BDCC01060808B5024B1B681B6A43
:100B6C00019308BDCC01060808B5024B1B68DB6B72
:100B7C00019308BDCC01060808B5024B1B681B6825
:100B8C00019308BDA001060808B5024B1B685B6801
:100B9C00019308BDA001060808B5024B1B68DB6871
:100BAC00019308BDA001060808B5024B1B68DB6A5F
:100BBC00019308BDA001060808B5024B1B681B6B0E
:100BCC00019308BDA00106080068FFF755BE006838
:100BDC00FFF75ABE70B504460E46002540F8085F74
:100BEC00FFF73AFE30462670FFF70EFE6560204692
:100BFC0070BD38B5054600F108042046FFF7E4FF48
:100C0C0028784FF6FF71FFF7D7FD2046FFF7DFFF7F
:100C1C0038BD70B505460E4600F108042046FFF7B6
:100C2C00D3FF28783146FFF7CFFD2046FFF7CFFFE3
:100C3C0070BD70B505460E4600F108042046FFF75E
:100C4C00C3FF28783146FFF7C7FD2046FFF7BFFFEB
:100C5C0070BD0000400830B5186000241868E5B27B
:100C6C00884206D90134082C02D040081860F5E7F8
:100C7C000725024B5B5D137030BD00BFD4290A08F9
:100C8C002DE9F041054600F1080688B0002402FB6E
:100C9C0001F730460294FFF797FF95F80080214644
:100CAC00142203A801F0EDFD0B23224603A94046B4
:100CBC00ADF80C30FFF7B8FD02AB0DF10702394669
:100CCC0004988DF80740FFF7C5FF9DF807102878AA
:100CDC00FFF78AFD3046FFF77AFF029808B0BDE8AF
:100CEC00F08108B50078FFF787FDC0B208BD007829
:100CFC00FFF792BD10B50446006818B1FFF744FF2A
:100D0C000023236010BD10B50446FFF7F3FF204607
:100D1C0010BD00004FF6FF7310B5084C002020608A
:100D2C00A080A07120816381FFF78AFE2046BDE878
:100D3C001040034A034900F0E1BF00BF140100203A
:100D4C0068000020130D0A08F8B506460D468F18EA
:100D5C000024BD420CD0336815F8011B9B6830464B
:100D6C009847002801DB0444F3E7002C08BF044635
:100D7C002046F8BD70B505460C46084649B101F051
:100D8C00CCFD2B68024621462846BDE87040DB6846
:100D9C00184770BD03689B681847012A98BF0A2240
:100DAC0030B50B468BB000218DF824100DF12304C7
:100DBC00B3FBF2F505FB1233DBB2092B94BF3033D6
:100DCC003733DBB2214604F801392B46002DEFD125
:100DDC00FFF7D0FF0BB030BD00231A461946406810
:100DEC00FFF782BE0B68036013B15A6801325A6078
:100DFC0070470000014A024B1A607047522A0A08D9
:100E0C0020010020024B1A68024B1A60704700BF89
:100E1C0000000020240100200021FFF719BE10B5AE
:100E2C008368044613B1032201469847204610BD3F
:100E3C0010B50446FFF7F3FF204610BD13B50B4663
:100E4C00044603C88DE8030093E8030084E803001C
:100E5C009DE8030083E8030002B010BD03480023A3
:100E6C008360034A034900F049BF00BF28010020FA
:100E7C00680000203D0E0A0808B5144B33B100F091
:100E8C001DFC03681B699847002816DC104B33B116
:100E9C0000F0C4FC03681B699847002810DC0D4B5C
:100EAC000BB1AFF300800C4B7BB100F035FC036849
:100EBC001B699847002806DC08BDAFF30080E5E706
:100ECC00AFF30080EBE7AFF3008008BD000000003B
:100EDC0000000000000000000000000008B5FFF753
:100EEC00CBFFFFF7B1FC014B186008BDA00100203F
:100EFC000248034A0349121A01F0B8BC00400240F0
:100F0C0004400240A02C0A0807B5002300931A469F
:100F1C006FF07701FFF7BEFD03B05DF804FB000036
:100F2C0007B543880A2B08D0502B09D1094B1B68F5
:100F3C003BB103B05DF804EB1847FFF7E5FF06E0A3
:100F4C00002300931A466FF07701FFF7A3FD03B05F
:100F5C005DF804FB3801002038B5104C104D2368A7
:100F6C00AB42104B0CBF012200221A7002D0FFF7CB
:100F7C00BFFF2560FFF760FC044601F08BFC0A4BB9
:100F8C0013B12046AFF3008000210748FFF7ECFDBA
:100F9C00BDE8384000210548FFF772BD0040024013
:100FAC001E1C279A3C010020000000002D0F0A088F
:100FBC0070470020704710B50446102100F0ACFEBD
:100FCC00204610BD08B508B1FFF7F5FF08BD00229B
:100FDC0002604FF69C72828010B5B1F90440848097
:100FEC008A8002680C6804600A6010BD10B5044663
:100FFC000068FFF7C9FD204610BD38B5C468F4B1D0
:10100C002378022B03D104F10C00FFF7EFFF656886
:10101C0035B12846FFF703FF1021284600F07CFE6F
:10102C00A56835B12846FFF7FAFE1021284600F0D6
:10103C0073FE2046BDE83840142100F06DBE38BD6B
:10104C0013B5044691E8050000234B600B6020604B
:10105C00626001A801930093FFF73CF8204602B0B0
:10106C0010BDF7B50C4606460F4654F8043B02ADCE
:10107C0045F8083D214601A8FFF7B4FE2946304645
:10108C00FFF7DEFF01A8FFF725F82046FFF722F84F
:10109C003846082100F040FE304603B0F0BD000099
:1010AC0038B500230446036010200D46FEF7EFFF11
:1010BC0028B1012343608360024BC560036020604C
:1010CC00204638BDE82A0A08826810B50AB900F033
:1010DC0036FEC368BDE81040184708B5006800F13B
:1010EC001001FFF7F1FF08BD826810B50AB900F0D6
:1010FC0026FEC368BDE81040184708B5006800F12B
:10110C001001FFF7F1FF08BD38B5002383608B6831
:10111C0004460D462BB102229847EB68E360AB689E
:10112C00A360204638BD0000F0B589B0046868465D
:10113C00FFF74DFF4FF0020200238DF80830D4E882
:10114C004F3F002B03D1C4E8412F0029F7D102D027
:10115C008DF8083063E014F10C0503D0694628467D
:10116C00FFF735FFBFF35F8F01236370BFF35F8F12
:10117C0004F10803002053E8006F43E80002002A42
:10118C00F9D1BFF35F8F002E49D0FFF769FC20B176
:10119C0029463046FFF798FF3AE0314602A8FFF7A0
:1011AC00B3FFE068B4F9105008B101F09BFB069056
:1011BC001020ADF81C50FEF76AFF0546E8B1002779
:1011CC0087601820FEF763FF044688B101468760EC
:1011DC0002A8FFF733FE049BA268A360059B049250
:1011EC00E26806A9E36004F110000592FFF7EFFE38
:1011FC000D4B2C60EB600D4BAB6006A8FFF7F6FEB9
:10120C0002A8FFF70CFE002229460948FFF730FC24
:10121C003046FFF704FE1021304600F07DFD684695
:10122C00FFF7E4FE09B0F0BDE7100A085D130A08E9
:10123C00A9180A082DE9F04F8BB006460F469046C8
:10124C0099469DF850A0FFF77FFC07AD834630BB55
:10125C004FF62E73059005A92846ADF81830FFF708
:10126C00B6FE1420FEF713FF044658B10223037098
:10127C0001234370C0F804B0C0F808B029460C3004
:10128C00FFF7A5FE3046214640F8044BFFF708FF58
:10129C002846FFF7ABFE05A8FFF7A8FE52E0002496
:1012AC000C2314206C60AC600793FEF7F0FE014633
:1012BC0018B1047044704460846004A80391FFF773
:1012CC00EFFE224B08200893FEF7E1FE044628B1FE
:1012DC00039B04A940F8043BFFF784FD00955FFADB
:1012EC008AF34A46414638460994FFF735FC20B943
:1012FC00039B5B7803F0FF0283B1039B04A906A850
:10130C000593FFF76FFD05A93046FFF799FE06A878
:10131C00FEF7E0FE04A8FEF7DDFE13E04FF69C732B
:10132C0005A903A80592ADF81830FFF7FDFE05A836
:10133C00FFF75CFE05A80999FFF793FE06A8FEF7D8
:10134C00C9FEDAE730460BB0BDE8F08FCD140A08C1
:10135C00022AF8B5044606D0032A17D0012A22D156
:10136C000B6803601FE018200E68FEF790FE054620
:10137C0050B13146FFF7C8FE3069B6F9147008B1A8
:10138C0001F0B0FA2861AF8225600CE0046854B11A
:10139C0004F11000FFF72AFE2046FFF740FD18214C
:1013AC00204600F0B9FC0020F8BD38B5002383605E
:1013BC008B6804460D462BB102229847EB68E3601C
:1013CC00AB68A360204638BD022A70B5044606D02F
:1013DC00032A11D0012A18D10B68036015E01420E0
:1013EC000E68FEF754FE054620B13146FFF7DDFFCF
:1013FC00337C2B74256008E0046834B12046FFF779
:10140C000EFD1421204600F087FC002070BD00006A
:10141C00F0B50C46BFF35F8F87B0002350E8006F28
:10142C0040E80032002AF9D1BFF35F8F002E3FD085
:10143C001846FFF715FB074620B121463046FFF74B
:10144C0053FE2EE0314601A8FFF7AFFF23781020A2
:10145C008DF81430FEF71BFE0546D0B187601420C2
:10146C00FEF715FE044678B18760014601A8FFF728
:10147C00E5FC039BA268A360049B0392E268E36013
:10148C009DF81430049223740A4B2C60EB600A4BC9
:10149C00AB6001A8FFF7C3FC002229460748FFF701
:1014AC00E7FA3046FFF7BBFC1021304600F034FC65
:1014BC0007B0F0BD07110A08D5130A08A9180A08C5
:1014CC0030B5044685B00D4668461146FFF7C9FD98
:1014DC007CB124B228460DB101F004FA029002A9A5
:1014EC006846ADF80C40FFF71FFE02A8FFF77EFD23
:1014FC001DE04FF0010200988DF80840D0E84F3FF6
:10150C00A34203D1C0E8412F0029F7D102D08DF8B6
:10151C0008300CE010F10C014FF0010318BF0373FD
:10152C00BFF35F8F043000F8033CFFF771FF01A895
:10153C00FEF7D0FD05B030BD704710B5044618213C
:10154C0000F0EAFB204610BDF8B50F4600F1080686
:10155C00051D002416F8011D0A223846FFF71DFC54
:10156C00AE42044407D0002CF4D02E213846FFF7AD
:10157C0011FC0444EEE72046F8BD000010B504460B
:10158C00044B112240F8043B002101F07AF920466B
:10159C0010BD00BF042B0A080346074A10B543F8D8
:1015AC00042B01F1100251F8044B914243F8044B07
:1015BC00F9D10A781A7010BD042B0A08024A41604E
:1015CC000260042202757047042B0A0810B59DF8BE
:1015DC00084044EA032343EA024242EA016104233D
:1015EC004160037510BD000037B5044D05609DF8D2
:1015FC0018500095FFF7EAFF03B030BD042B0A0822
:10160C0041747047704708B50021007CFFF7F8F96A
:10161C0030EA200028BF4FF0FF3008BD08B501218B
:10162C00007CFFF7EDF930EA200028BF4FF0FF30C7
:10163C0008BD08B5007CFFF7DBF920EAE07008BDB7
:10164C0008B5007CFFF7CCF920EAE07008BD007CFF
:10165C00FFF7E6B910B50446142100F05DFB2046F7
:10166C0010BD38B50446007C0D46FFF7C1F90028C3
:10167C0001DC607C28B12946207CFFF7C9F920EAFF
:10168C00E07038BD10B50446002363604FF47A73E4
:10169C00A360054B08462360012321746374114633
:1016AC00FFF796F9204610BD182B0A0810B5044612
:1016BC001422002101F0E5F8204610BD30B50E4D86
:1016CC0087B001A8FFF7F2FF296811F0010410D1CF
:1016DC002846FEF7E0FC60B101AA21460748FFF757
:1016EC00D1FF2846FEF7DCFC054A0649034800F00A
:1016FC0005FB024807B030BD400100204801002026
:10170C006800002011160A0810B5044614220021A6
:10171C0001F0B7F8204610BD10B50E4C86B001A8EC
:10172C00FFF7F2FF2368DB0710D42046FEF7B3FC6B
:10173C0060B101AA01210848FFF7A4FF2046FEF77B
:10174C00AFFC064A0649044800F0D8FA024806B035
:10175C0010BD00BF440100205C0100206800002087
:10176C0011160A0870474174704708B5007CFFF7E2
:10177C00CBF820EAE07008BD08B5007CFFF79CF8B8
:10178C0020EAE07008BD08B5007CFFF7A5F830EA48
:10179C00200028BF4FF0FF3008BD08B5007CFFF7D4
:1017AC0093F830EA200028BF4FF0FF3008BD007CD2
:1017BC00FFF79AB810B50446142100F0ADFA204694
:1017CC0010BD70B5457C04460E4625B9007CFFF76C
:1017DC009BF8002805DD3146207CBDE87040FFF702
:1017EC0063B8284670BD000010B504460846114683
:1017FC00002262604FF47A72A260054A2074226063
:10180C00012262741A46FFF747F8204610BD00BF4C
:10181C00482B0A08007CFFF76FB80000F8B5194C8C
:10182C0025684DB98420FEF732FC064618B1842297
:10183C00294601F026F82660134D2E684EB98420F7
:10184C00FEF725FC074618B18422314601F019F841
:10185C002F600E4F396811F0010611D13846FEF792
:10186C001AFC68B1226831462B680948FFF7BCFFA7
:10187C003846FEF715FC074A0749054800F03EFAC2
:10188C000348F8BD8C010020840100208801002051
:10189C00700100206800002071170A0810B58368D9
:1018AC0004460BB900F04BFAC3689847A3681BB108
:1018BC0003222146204698472046BDE810401021BF
:1018CC0000F02ABA7047F8B5064615460C468F1834
:1018DC00BC4206D0336814F8011B9B68304698470D
:1018EC00F6E72846F8BD0022007CFFF72DB8002152
:1018FC00007CFFF731B80021007CFFF735B80021E0
:10190C00007CFFF739B80021007CFFF73DB810B51B
:10191C000446142100F000FA204610BD10B5044610
:10192C00002363604FF47A73A360044B2174084660
:10193C0023601146FFF738F8204610BD782B0A08B3
:10194C0000231A461946007CFEF7E6BF70B50C461C
:10195C00064686B014252A46002101A800F091FF06
:10196C00237800228DF80830636801A90393E3689B
:10197C00307C0493237AADF804500593FFF71EF8DE
:10198C0006B070BD1FB500338DF800104FF0640128
:10199C00039118BF0123694601928DF80830FFF7B7
:1019AC00D5FF05B05DF804FB0123FFF7EBBF002268
:1019BC00007CFEF7B9BFC9B2FFF7F9BF0022007C6B
:1019CC00FEF7BABF0121FFF7F9BF0021007CFEF73B
:1019DC00E3BF002211464068FFF77EB8F0B516460B
:1019EC0089B011220F460446002103A800F049FFDC
:1019FC00304600F092FF0025009581B27B6803AA67
:101A0C003046FFF715F820B129462046FFF7D6FDE2
:101A1C0003E003A92046FFF7BFFD204609B0F0BD47
:101A2C00002211464068FFF777B800221146406843
:101A3C00FFF782B800224068FFF776B8002281F0E9
:101A4C0001014068FFF760B800231A461946406848
:101A5C00FFF752B8002211464068FFF72DB800225C
:101A6C0002214068FFF730B800231A464068FFF7A0
:101A7C001BB80000024B04225A60024A1A607047DD
:101A8C0090010020A02B0A0800231A464068FFF79B
:101A9C000BB8002202214068FFF716B8002211464D
:101AAC004068FFF709B8002211464068FFF714B8E8
:101ABC0000231A4619464068FFF716B800231A4649
:101ACC0019464068FFF718B8002281F00101406800
:101ADC00FFF71AB800224068FFF726B8002211461B
:101AEC004068FFF729B8002211464068FFF714B888
:101AFC0070B516468EB0044608A8FFF73FFD1122BC
:101B0C00002103A800F0BDFE304600F006FF0025C2
:101B1C000A4B009581B25B6803AA3046FEF788FF3A
:101B2C0020B129462046FFF749FD03E003A92046D2
:101B3C00FFF732FD20460EB070BD00BF90010020B3
:101B4C00024B034A1A6000225A6070479801002029
:101B5C00D42B0A0870B51A4E0446316811F00105F1
:101B6C000FD13046FEF797FA58B129461548FFF7C2
:101B7C0031F83046FEF794FA134A1449114800F034
:101B8C00BDF81048FFF7B3F828B1A4F10D03022BF0
:101B9C0001D8002070BD00F08BF8FFF716FF08B1DC
:101BAC00012CF6D9FFF73AFEFFF734FE18B1A4F179
:101BBC001203012BEDD9172C8CBF0020012070BD16
:101BCC000401002008010020680000208D020A0892
:101BDC00172838B504460D460AD8FF2908D0FFF758
:101BEC00B9FF28B129462046BDE83840FEF7C4BDF0
:101BFC0038BD38B504460D46FEF7C6FDFF2810D09B
:101C0C00062804D84D2323FA00F0C30709D4204634
:101C1C00FFF7A0FF28B129462046BDE83840FEF763
:101C2C00BBBD38BD10B50446FEF7AEFD0438C0B2DE
:101C3C00012808D92046FFF78DFF20B12046BDE8CA
:101C4C001040FEF7B1BD002010BD000013B5084CCC
:101C5C0000231A46194600932046FFF7C5FC204680
:101C6C00044A054902B0BDE8104000F047B800BF77
:101C7C00A40100206800002045150A0870B5044630
:101C8C0014252A46094E002100F0FBFD2580202555
:101C9C003146A5602561284600F040F83146606069
:101CAC00284600F03BF8E060204670BD002C0A0886
:101CBC0030B50E4D87B0296811F0010413D12846B8
:101CCC00FEF7E9F978B101A8FFF7D8FF01AA214680
:101CDC000748FFF723FE2846FEF7E2F9054A0649B6
:101CEC00034800F00BF8024807B030BDBC010020DF
:101CFC00C001002068000020D1180A080B460146DC
:101D0C00184600F0A5BD0000024B1868BFF35F8FAA
:101D1C00704700BFD4010020FEF7BBB900F000B83B
:101D2C0010B5002814BF044601242046FEF724FFFA
:101D3C0020B9FFF7E9FF08B18047F6E710BD08B5F9
:101D4C00FEF732FF184B1A68D1075CBF01221A60EC
:101D5C00164B1A68D2075CBF01221A60144B1A6822
:101D6C00D0075CBF01221A60124B1A68D1075CBF06
:101D7C0001221A60104B1A68D2075CBF01221A604C
:101D8C000E4B1A68D0075CBF01221A600C4B1A6804
:101D9C00D1075CBF01221A600A4B1A68D2075CBFDC
:101DAC0001221A60704700BFF4010020F0010020EE
:101DBC00EC010020E8010020E4010020E0010020FB
:101DCC00DC010020D8010020244B1A68D0075CBF2E
:101DDC0001221A60224B1A68D1075CBF01221A60DB
:101DEC00204B1A68D2075CBF01221A601E4B1A687E
:101DFC00D0075CBF01221A601C4B1A68D1075CBF6C
:101E0C0001221A601A4B1A68D2075CBF01221A60B1
:101E1C00184B1A68D0075CBF01221A60164B1A685F
:101E2C00D1075CBF01221A60144B1A68D2075CBF41
:101E3C0001221A60124B1A68D0075CBF01221A608B
:101E4C00104B1A68D1075CBF01221A600E4B1A683E
:101E5C00D2075CBF01221A60704700BF2402002029
:101E6C00200200201C020020180200201402002076
:101E7C00100200200C0200200802002004020020A6
:101E8C0000020020FC010020F8010020244B1A68FD
:101E9C00D0075CBF01221A60224B1A68D1075CBFC5
:101EAC0001221A60204B1A68D2075CBF01221A600B
:101EBC001E4B1A68D0075CBF01221A601C4B1A68B3
:101ECC00D1075CBF01221A601A4B1A68D2075CBF9B
:101EDC0001221A60184B1A68D0075CBF01221A60E5
:101EEC00164B1A68D1075CBF01221A60144B1A6892
:101EFC00D2075CBF01221A60124B1A68D0075CBF74
:101F0C0001221A60104B1A68D1075CBF01221A60BB
:101F1C000E4B1A68D2075CBF01221A60704700BFD3
:101F2C0054020020500200204C02002048020020E5
:101F3C0044020020400200203C0200203802002015
:101F4C0034020020300200202C0200202802002045
:101F5C00184B1A68D1075CBF01221A60164B1A681D
:101F6C00D2075CBF01221A60144B1A68D0075CBF01
:101F7C0001221A60124B1A68D1075CBF01221A6049
:101F8C00104B1A68D2075CBF01221A600E4B1A68FC
:101F9C00D0075CBF01221A600C4B1A68D1075CBFDA
:101FAC0001221A600A4B1A68D2075CBF01221A6020
:101FBC00704700BF74020020700200206C020020E9
:101FCC006802002064020020600200205C020020F5
:101FDC005802002081F0004102E000BF83F0004372
:101FEC0030B54FEA41044FEA430594EA050F08BFA8
:101FFC0090EA020F1FBF54EA000C55EA020C7FEA6C
:10200C00645C7FEA655C00F0E2804FEA5454D4EBE8
:10201C005555B8BF6D420CDD2C4480EA020281EAB2
:10202C00030382EA000083EA010180EA020281EAEA
:10203C000303362D88BF30BD11F0004F4FEA01313C
:10204C004FF4801C4CEA113102D0404261EB41014B
:10205C0013F0004F4FEA03334CEA133302D05242D1
:10206C0063EB430394EA050F00F0A780A4F101048D
:10207C00D5F1200E0DDB02FA0EFC22FA05F28018C7
:10208C0041F1000103FA0EF2801843FA05F35941AD
:10209C000EE0A5F120050EF1200E012A03FA0EFC2C
:1020AC0028BF4CF0020C43FA05F3C01851EBE37156
:1020BC0001F0004507D54FF0000EDCF1000C7EEB73
:1020CC0000006EEB0101B1F5801F1BD3B1F5001FB1
:1020DC000CD349085FEA30004FEA3C0C04F10104D0
:1020EC004FEA445212F5800F80F09A80BCF1004FF9
:1020FC0008BF5FEA500C50F1000041EB045141EA7B
:10210C00050130BD5FEA4C0C404141EB010111F47B
:10211C00801FA4F10104E9D191F0000F04BF014626
:10212C000020B1FA81F308BF2033A3F10B03B3F104
:10213C0020020CDA0C3208DD02F1140CC2F10C0294
:10214C0001FA0CF021FA02F10CE002F11402D8BFF2
:10215C00C2F1200C01FA02F120FA0CFCDCBF41EABE
:10216C000C019040E41AA2BF01EB0451294330BD8D
:10217C006FEA04041F3C1CDA0C340EDC04F114046A
:10218C00C4F1200220FA04F001FA02F340EA030041
:10219C0021FA04F345EA030130BDC4F10C04C4F187
:1021AC00200220FA02F001FA04F340EA0300294667
:1021BC0030BD21FA04F0294630BD94F0000F83F4B1
:1021CC00801306BF81F480110134013D4EE77FEA94
:1021DC00645C18BF7FEA655C29D094EA050F08BFE0
:1021EC0090EA020F05D054EA000C04BF19461046C1
:1021FC0030BD91EA030F1EBF0021002030BD5FEA05
:10220C00545C05D14000494128BF41F0004130BD2C
:10221C0014F580043CBF01F5801130BD01F0004580
:10222C0045F0FE4141F470014FF0000030BD7FEAF3
:10223C00645C1ABF194610467FEA655C1CBF0B46EE
:10224C00024650EA013406BF52EA033591EA030F05
:10225C0041F4002130BD00BF90F0000F04BF0021FD
:10226C00704730B54FF4806404F132044FF0000530
:10227C004FF0000150E700BF90F0000F04BF0021A9
:10228C00704730B54FF4806404F1320410F000450F
:10229C0048BF40424FF000013EE700BF42004FEA0A
:1022AC00E2014FEA31014FEA02701FBF12F07F4387
:1022BC0093F07F4F81F06051704792F0000F14BF84
:1022CC0093F07F4F704730B54FF4607401F00045C8
:1022DC0021F0004120E700BF50EA010208BF70471F
:1022EC0030B54FF000050AE050EA010208BF704714
:1022FC0030B511F0004502D5404261EB41014FF47D
:10230C00806404F132045FEA915C3FF4DCAE4FF080
:10231C0003025FEADC0C18BF03325FEADC0C18BF67
:10232C00033202EBDC02C2F1200300FA03FC20FAB8
:10233C0002F001FA03FE40EA0E0021FA02F1144405
:10234C00C1E600BF4FEA410212F5001215D211D5B9
:10235C006FF47873B3EB625212D94FEAC12343F096
:10236C00004343EA505311F0004F23FA02F018BF18
:10237C00404270474FF00000704750EA013005D1E1
:10238C0011F0004008BF6FF0004070474FF00000A4
:10239C00704700BF80F0004002E000BF81F00041B8
:1023AC0042001FBF5FEA410392EA030F7FEA226CEF
:1023BC007FEA236C6AD04FEA1262D2EB1363C1BF7F
:1023CC00D218414048404140B8BF5B42192B88BFEE
:1023DC00704710F0004F40F4000020F07F4018BF11
:1023EC00404211F0004F41F4000121F07F4118BF31
:1023FC00494292EA030F3FD0A2F1010241FA03FCD9
:10240C0010EB0C00C3F1200301FA03F100F00043C0
:10241C0002D5494260EB4000B0F5000F13D3B0F188
:10242C00807F06D340084FEA310102F10102FE2AF7
:10243C0051D2B1F1004F40EBC25008BF20F0010067
:10244C0040EA03007047490040EB000010F4000F15
:10245C00A2F10102EDD1B0FA80FCACF1080CB2EBA8
:10246C000C0200FA0CF0AABF00EBC2505242184307
:10247C00BCBFD0401843704792F0000F81F40001AC
:10248C0006BF80F400000132013BB5E74FEA41037F
:10249C007FEA226C18BF7FEA236C21D092EA030FEB
:1024AC0004D092F0000F08BF0846704790EA010F65
:1024BC001CBF0020704712F07F4F04D1400028BF92
:1024CC0040F00040704712F100723CBF00F5000074
:1024DC00704700F0004343F0FE4040F400007047AA
:1024EC007FEA226216BF08467FEA23630146420256
:1024FC0006BF5FEA412390EA010F40F48000704769
:10250C004FF0000304E000BF10F0004348BF40420E
:10251C005FEA000C08BF704743F0964301464FF04A
:10252C0000001CE050EA010208BF70474FF00003A6
:10253C000AE000BF50EA010208BF704711F00043E7
:10254C0002D5404261EB41015FEA010C02BF8446B7
:10255C000146002043F0B64308BFA3F18053A3F516
:10256C000003BCFA8CF2083AA3EBC25310DB01FA5D
:10257C0002FC634400FA02FCC2F12002BCF1004FE1
:10258C0020FA02F243EB020008BF20F00100704772
:10259C0002F1200201FA02FCC2F1200250EA4C00C6
:1025AC0021FA02F243EB020008BF20EADC7070470C
:1025BC004FF0FF0C1CEAD0521EBF1CEAD15392EA1A
:1025CC000C0F93EA0C0F6FD01A4480EA010C4002F6
:1025DC0018BF5FEA41211ED04FF0006343EA501050
:1025EC0043EA5111A0FB01310CF00040B1F5000F92
:1025FC003EBF490041EAD3715B0040EA010062F141
:10260C007F02FD2A1DD8B3F1004F40EBC25008BF2A
:10261C0020F00100704790F0000F0CF0004C08BF48
:10262C0049024CEA502040EA51207F3AC2BFD2F115
:10263C00FF0340EAC250704740F400004FF0000323
:10264C00013A5DDC12F1190FDCBF00F0004070475D
:10265C00C2F10002410021FA02F1C2F1200200FA9B
:10266C0002FC5FEA310040F1000053EA4C0308BF62
:10267C0020EADC70704792F0000F00F0004C02BFB3
:10268C00400010F4000F013AF9D040EA0C0093F02E
:10269C00000F01F0004C02BF490011F4000F013B88
:1026AC00F9D041EA0C018FE70CEAD15392EA0C0FF6
:1026BC0018BF93EA0C0F0AD030F0004C18BF31F061
:1026CC00004CD8D180EA010000F00040704790F037
:1026DC00000F17BF90F0004F084691F0000F91F0DB
:1026EC00004F14D092EA0C0F01D142020FD193EAA1
:1026FC000C0F03D14B0218BF084608D180EA010029
:10270C0000F0004040F0FE4040F40000704740F004
:10271C00FE4040F4400070474FF0FF0C1CEAD052D2
:10272C001EBF1CEAD15392EA0C0F93EA0C0F69D02E
:10273C00A2EB030280EA010C49024FEA402037D099
:10274C004FF0805343EA111143EA10130CF0004090
:10275C008B4238BF5B0042F17D024FF4000C8B4280
:10276C0024BF5B1A40EA0C00B3EB510F24BFA3EB60
:10277C00510340EA5C00B3EB910F24BFA3EB910330
:10278C0040EA9C00B3EBD10F24BFA3EBD10340EA8A
:10279C00DC001B0118BF5FEA1C1CE0D1FD2A3FF6D0
:1027AC0050AF8B4240EBC25008BF20F00100704785
:1027BC000CF0004C4CEA50207F32C2BFD2F1FF0328
:1027CC0040EAC250704740F400004FF00003013A59
:1027DC0037E792F0000F00F0004C02BF400010F4FD
:1027EC00000F013AF9D040EA0C0093F0000F01F011
:1027FC00004C02BF490011F4000F013BF9D041EA33
:10280C000C0195E70CEAD15392EA0C0F08D1420265
:10281C007FF47DAF93EA0C0F7FF470AF084676E738
:10282C0093EA0C0F04D14B023FF44CAF08466EE711
:10283C0030F0004C18BF31F0004CCAD130F00042DF
:10284C007FF45CAF31F000437FF43CAF5FE700BF37
:10285C0010B5054C13462CB10A4601460220AFF3C5
:10286C00008010BD204610BD0000000010B5431EB6
:10287C000A44914204D011F8014B03F8014FF8E7D8
:10288C0010BD03460244934202D003F8011BFAE741
:10289C007047000038B5124B05461C68A36BD3B9C2
:1028AC001820FEF769F943F20E33A06303804AF651
:1028BC00CD33438041F2342383804EF26D63C38069
:1028CC004DF6EC630381052343810B2383810122A5
:1028DC000023C0E90423A36B00221D615A6138BD9B
:1028EC0064000020024B0146186800F003B800BFDA
:1028FC006400002070B5064608460C4600F00DF842
:10290C00451C29463046FEF757F9064618B12A46AB
:10291C002146FFF7ABFF304670BD034613F8012B81
:10292C00002AFBD1181A01387047034610B542B182
:10293C0011F8014B013A03F8014B002CF7D11A4462
:10294C0000E010BD934202D003F8014BFAE710BD32
:10295C001D000A085D000A0889000A088D000A0893
:10296C00000000002564006576004C495333444850
:10297C0020636F6E66696775726174696F6E20652E
:10298C0072726F72004C495333444820636F6E6609
:10299C0069677572656420737563636573736675B7
:1029AC006C6C79004C495333444800000000000023
:1029BC0000000000B5000A0845020A08B3000A0826
:1029CC003B070A089D020A08000810182028303816
:1029DC00626175640053657269616C0055534253B2
:1029EC00657269616C310074797065007061726137
:1029FC006D00636D6400696400686E6400737472CA
:102A0C006D0066696C74006C766C0061646448617E
:102A1C006E646C65720072656D6F766548616E648C
:102A2C006C657200656E756D48616E646C65727371
:102A3C00004A534F4E53747265616D4C6F67486119
:102A4C006E646C65720061707000253031307520D9
:102A5C00005D20002C200028293A2000205B006318
:102A6C006F6465203D200025690064657461696CA4
:102A7C0073203D20000D0A0066006C6E00666E002F
:102A8C00636F64650064657461696C006E6F6E657C
:102A9C0000747261636500696E666F007761726EB7
:102AAC000070616E696300616C6C005A00252B30FC
:102ABC0033643A253032750025592D256D2D25644A
:102ACC005425483A254D3A2553257A006173637491
:102ADC00696D65000000000000000000BD0F0A08D1
:102AEC00C30F0A0807100A08D10F0A08BF0F0A08FB
:102AFC00000000000000000055150A0845150A08E2
:102B0C0047150A08000000000000000011160A0812
:102B1C0061160A086F160A08550D0A084D160A08A0
:102B2C0013160A0829160A085B160A083F160A0823
:102B3C000D160A08000000000000000071170A08BA
:102B4C00C1170A08CF170A08550D0A0885170A0875
:102B5C00A7170A0893170A08BB170A0873170A085D
:102B6C0077170A080000000000000000D1180A08BE
:102B7C001B190A08F3180A08D3180A08FB180A08C4
:102B8C0003190A080B190A0813190A080000000097
:102B9C0000000000751A0A086B1A0A08611A0A0864
:102BAC00DF190A08E50D0A08551A0A08491A0A0815
:102BBC00411A0A08371A0A082D1A0A08E9190A08CC
:102BCC000000000000000000951A0A089F1A0A086D
:102BDC00A91A0A08B31A0A08BD1A0A08C91A0A0857
:102BEC00D51A0A08E11A0A08E91A0A08F31A0A0897
:102BFC00FD1A0A08000000000000000000000000A0
:102C0C0000000000000000000000000000000000B8
:102C1C0000000000000000000000000000000000A8
:102C2C000000000000000000000000000000000098
:102C3C000000000000000000000000000000000088
:102C4C000000000000000000000000000000000078
:102C5C0000000000000000004300000055020A08BC
:102C6C0089020A086F070A08210D0A08010E0A08D2
:102C7C00110E0A08690E0A08811A0A084D1B0A0867
:102C8C00591C0A08511D0A08D51D0A08991E0A0864
:042C9C005D1F0A08A6
:042CA0000000000030
:102CA400D82A0A0800000000042C0A08242C0A0868
:102CB400442C0A080000000000000000000000008E
:102CC40000000000642C0A0800000000000000005E
:102CD40000000000000000000000000000000000F0
:102CE40000000000000000000000000000000000E0
:102CF40000000000000000000000000000000000D0
:082D04000000000004000020A3
:102D0C00FFFFFFFF00000102030405060708090A84
:102D1C000B0C0D0E0F101112131415161718191A7F
:082D2C001B1C1D1E1F202800C6
:042D34007856341287
:04000005080A001CC9
:00000001FF
